:020000040800F2
:1000000000100020D17100085070000850700008E6
:1000100050700008507000085070000850700008C0
:10002000507000085070000850700008717000088F
:10003000507000085070000850700008717100087E
:100040005070000850700008507000085070000890
:100050005070000850700008507000085070000880
:10006000507000085070000850700008319A000865
:10007000019A0008D1990008A19900087199000817
:10008000419900081199000850700008507000084C
:100090005070000850700008507000085070000840
:1000A0005070000850700008507000085070000830
:1000B0005070000850700008507000085070000820
:1000C0005070000850700008507000085070000810
:1000D0005070000850700008219D00085070000802
:1000E00050700008507000085070000850700008F0
:1000F000507000085070000850700008E198000827
:1001000050700008507000085070000850700008CF
:1001100050700008507000085070000850700008BF
:10012000B1980008819800085198000821980008AB
:10013000F1970008507000085070000850700008D7
:10014000507000085070000850700008507000088F
:10015000C197000891970008619700085070000847
:10016000507000085070000850700008507000086F
:10017000507000085070000850700008507000085F
:080180005070000850700008E7
:10019000032A2DE9F0070BD83AB1002311F803C068
:1001A00000F803C001339342F8D1BDE8F00770476F
:1001B00082180C46034603E014F8011C03F8011CE6
:1001C00003F003061946A44601330134002EF3D18F
:1001D0001CF00304634608BFC1EB020C68D0654203
:1001E000C4F1040A0CEB050733464FEACA0A5CF86F
:1001F00005604FEAC408551A08E057F8044F264630
:1002000004FA0AF449EA0404CC5004335C18032DC0
:1002100026FA08F9A5F104050CEB0306EDDC002332
:1002200002E0F15CE154013319199142F9D3BCE7C2
:1002300053F8404C41F8404C53F83C4C41F83C4C8E
:1002400053F8384C41F8384C53F8344C41F8344C9E
:1002500053F8304C41F8304C53F82C4C41F82C4CAE
:1002600053F8284C41F8284C53F8244C41F8244CBE
:1002700053F8204C41F8204C53F81C4C41F81C4CCE
:1002800053F8184C41F8184C53F8144C41F8144CDE
:1002900053F8104C41F8104C53F80C4C41F80C4CEE
:1002A00053F8084C41F8084C53F8044C41F8044CFE
:1002B0001C460D4640334031BCF13F0FACF1400CC1
:1002C000B6DC21462B46541B0FE051F8105C43F876
:1002D000105C51F80C5C43F80C5C51F8085C43F876
:1002E000085C51F8045C43F8045C0F2C0D469C46F6
:1002F00001F1100103F11003A4F11004E5DCCCEBD3
:100300000201002303E0EC584CF8034004335E196B
:10031000032903EB0C04A1F10401F4DC7FE700BF27
:1003200088428C4670B4054614460ED98B18984204
:100330000BD242B1C2EB030C0146531E1CF8032042
:10034000CA54013BFAD270BC70470F2A09D8002C5E
:10035000F9D000231CF80320EA540133A342F9D159
:10036000F1E741EA000313F0030FF0D194460C4685
:1003700003462568ACF1100C1D6065685D60A568DA
:100380009D60E5681034DD601033BCF10F0FF0D8CC
:10039000103A4FEA121C0CF10105CCEB0C7C2D013C
:1003A00002EB0C1601EB050C4519032E3446CED991
:1003B00000235CF80320EA500433F21A032AF8D829
:1003C000043EB3085A1CC3EB83739200944406EBBB
:1003D0008304AD18BBE700BF000000000000000070
:1003E000F0B40378002B2CD042F20402C2F20002D7
:1003F000156802E010F8013FE3B15A1903F1200437
:10040000527812F001070A7808BF1C460131561CC9
:100410009446AE5D16F0010F18BF02F1200C644542
:10042000E8D007B1203316F0010F18BF2032981A18
:10043000F0BC70470A786F78561C07F00107AE5D74
:10044000EFE742F204000A78C2F20000561C056889
:100450006F78AE5D07F00107E3E700BF0000000022
:1004600010F0030F10B5044618BF004611D12368E1
:100470002046A3F1013222EA030313F0803F08D1A2
:1004800050F8043FA3F1013222EA030313F0803F46
:10049000F6D003781BB110F8013F002BFBD100F020
:1004A000F7F8204610BD00BF00000000000000006B
:1004B00080EA010212F0030F3AD110F0030220F09B
:1004C000030021F0030150F804CB08BF51F8043BAE
:1004D0000DD082F003024FEAC2026FF07F4323FA8D
:1004E00002F251F8043B4CEA020C43EA020300BF5B
:1004F000ACF101329C4501BF22EA0C0212F0803FB0
:1005000050F804CB51F8043BF2D04FEA0C604FEAAC
:100510001C2C012828BFB0EB036F08BF1B0AF4D0C6
:1005200003F0FF034FEA1060A0EB0300704700BF29
:1005300010F0030F0AD010F8012B11F8013B012A2B
:1005400028BF9A42F4D0A2EB030070474DF8045D37
:100550004DF8044D4FF0010242EA022242EA024203
:1005600001F0030C21F0030150F8044B51F8045B37
:10057000BCF1020F26D04BD824F07F4CBCEB152FDA
:10058000A4EB020323EA04030DD113EAC21308BF4C
:1005900051F8045B0AD18CEA040CBCEB056F0CD15A
:1005A00050F8044BE8E74FEA15255CE033F07F4351
:1005B00052D10D784FEA146C55E04FEA146C05F0F7
:1005C000FF0550E04FEA044CA4EB02034FEA1C4C39
:1005D00023EA0403BCEB154F17D113EAC21308BF7B
:1005E00051F8045B07D18CEA040CBCEB054F08D131
:1005F00050F8044BE6E71B042ED10D884FEA144C4B
:1006000031E04FEA05454FEA144C4FEA15452AE020
:1006100004F0FF0CBCEB156FA4EB020323EA040308
:100620000DD113EAC21308BF51F8045B0AD18CEA5A
:10063000040CBCEB052F0AD150F8044BE8E74FEA55
:10064000156510E014F0FF0F06D051F8045B4FEA77
:10065000142C25F07F4506E04FF000005DF8044BB8
:100660005DF8045B70470CF0FF0205F0FF00012805
:1006700028BF904204BF4FEA1C2C2D0AF3D0A2EBF6
:1006800000005DF8044B5DF8045B7047000000005B
:1006900080EA0102844612F0030F4FD111F0030FDC
:1006A00032D14DF8044D11F0040F51F8043B0BD03A
:1006B000A3F101329A4312F0803F04BF4CF8043B8F
:1006C00051F8043B16D100BF51F8044BA3F101329D
:1006D0009A4312F0803FA4F101320BD14CF8043B55
:1006E000A24312F0803F04BF51F8043B4CF8044B86
:1006F000EAD023460CF8013B13F0FF0F4FEA3323F7
:10070000F8D15DF8044B704711F0010F06D011F8D5
:10071000012B0CF8012B002A08BF704711F0020FC3
:10072000BFD031F8022B12F0FF0F16BF2CF8022BAE
:100730008CF8002012F47F4FB3D1704711F8012BD1
:100740000CF8012B002AF9D1704700BF000000000F
:1007500020F0030110F00300C0F1000051F8043B49
:1007600000F1040C4FEACC0C6FF000021CBF22FA1F
:100770000CF213434FF0010C4CEA0C2C4CEA0C4CDD
:10078000A3EB0C0222EA030212EACC1204BF51F8D6
:10079000043B0430F4D013F0FF0F1FBF013013F4FB
:1007A0007F4F013013F47F0F18BF0130704700BF37
:1007B00030B41346002A43D041EA000212F0030F7E
:1007C00025D1032B04460D463DD9026809688A42AB
:1007D00039D1043B34D0A2F1013121EA020212F0F6
:1007E000803F0DD02CE022682968A2F101308A42B6
:1007F00020EA020027D1043B22D010F0803F1FD115
:1008000004340435032BEED820462946F3B104788E
:10081000013B91F800C064450FD18BB184B1013B1D
:10082000002202E063B15CB1013B84188D180132F3
:10083000647895F801C06445F4D0CCEB040000E086
:10084000002030BC704720462946E0E7247895F820
:1008500000C0CCEB0400F4E7000000000000000042
:100860000023026043608360C160704700000000A5
:10087000426801F01F010346C1F11F0032FA00F087
:100880008A405A609A684008511A002930B5996028
:1008900047DADA68C1F1000C032A1BDD1C68043A50
:1008A000214611F8015B2D065D601960647845EA08
:1008B00004454C1C5D601C60497845EA0125611CBB
:1008C0005D601960647801312543196020215D6005
:1008D000996018E00021596007E0196811F8015B80
:1008E00045EA0404240219605C60013AB2F1FF3F5A
:1008F0005C68F2D1DA68C2F10301C9008C40D20011
:100900009A605C600022DA605A68CCF1200132FA09
:1009100001F102FA0CF2084399685A60CCEB01012C
:10092000996030BD000000000000000000000000E1
:1009300003685B1A8168DB00581A801A7047000050
:1009400030B1036823B15869003818BF01207047DF
:100950004FF0FF3070470000000000000000000072
:10096000F0B50346002800F0D2800268002A00F0AB
:10097000CE800878FF2840F0CA80487800F0E00C6C
:10098000BCF1E00F40F0C380C00810F0030001D1BB
:10099000022003E080F0010000F0010010704E78AA
:1009A000760806F00306C6F1040656604C7804F09B
:1009B000010484F0010494608D782D09D5608C7851
:1009C000A40804F0030414618F787F0807F001077E
:1009D00057618F7807F00107976191F803C04FEADC
:1009E0009C1C82F81CC0CF783F0907F003071762F0
:1009F000CF78FF0807F001075762CF78BF0807F0EC
:100A000001079762CF78032C07F00307D7627ED0E7
:100A1000042E7CD00F2D7AD04A256C43943505FBEB
:100A200000403C4C2018BCF1010F506301D0002065
:100A3000106292F81CC0384CBCF1030F0CBF0120AF
:100A40000220C3F8BC071078166900EB4005AE1908
:100A500054F8264083F8D407C3F8C04700280CBFD9
:100A600002240124C3F8C4475668AD192B4E013D3A
:100A700036F9155095FBF4F4C3F8C8475468C3F829
:100A8000D047D468002C36D0107856682D254543C1
:100A9000013E3701BE1BAE193419214EBCF1030FC4
:100AA00014BF4FF0020C4FF0000C36F814604FF4F6
:100AB0007A7416FB04F4C3F8B8471469D66805EBDA
:100AC00004152C1B0CEB800C164D5069A41935F93C
:100AD0001440003818BF012004380019124C9668E1
:100AE0003CF904C0002E14BF02260026CCEB000007
:100AF000801BC3F8CC07936833B108794B7943EA7C
:100B0000002313630620F0BD13630420F0BD4FF0F3
:100B1000FF30F0BDF0F9000880F80008B0F80008D8
:100B2000D0F8000870F7000890FC000800000000F2
:100B30002DE9F04F0A4687B00646002800F01F81D5
:100B40000568002D00F01B814468002C00F017811F
:100B500095F800A02F7FBAF1000F30D10DF10808F1
:100B6000032F0CBF1127202740463946FFF778FE98
:100B700009214046FFF77CFE297F206003290CBF36
:100B8000052103214046FFF773FE60600CE0012160
:100B900002A8FFF76DFE08F10108B8F1040F49F84B
:100BA000040BF4D10AF1010AD6F8BC379A451EDAD3
:100BB00004EB0A1909F108094FF00008E7E70DF105
:100BC0000808032F0CBF0927112740463946FFF7B5
:100BD00047FE08214046FFF74BFE297F206003298E
:100BE0000CBF012102214046FFF742FE6060002257
:100BF00004F128090192B5E00DF1080A0C215046D4
:100C0000FFF736FE0921C8F800005046FFF730FE16
:100C10000821C8F804005046FFF72AFE2978C8F8D2
:100C2000080000290CBF042109215046FFF720FECF
:100C30000121C8F80C005046FFF71AFEC8F8100052
:100C4000002847D002215046FFF712FE0121C8F8C4
:100C500014005046FFF70CFE0521C8F81800504656
:100C6000FFF706FE0521C8F81C005046FFF700FEFE
:100C70000023C8F82430C8F8200003215046FFF7AD
:100C8000F7FD0321C8F828005046FFF7F1FD0321C6
:100C9000C8F82C005046FFF7EBFDD8F81430C8F820
:100CA000300033B9C8F80430C8F80030C8F80C3048
:100CB00009E0022B04D1D8F818300BB9083300E052
:100CC0000723C8F83430D8F83430C3F11403C8F817
:100CD000383021E0C8F81400C8F818000521504643
:100CE000FFF7C6FD0521C8F81C005046FFF7C0FD00
:100CF0000521C8F820005046FFF7BAFD0421C8F8C6
:100D000024005046FFF7B4FD0321C8F834005046D4
:100D1000FFF7AEFDC8F838002B780BB1002003E0D8
:100D200002A80121FFF7A4FD0DF1080AC8F83C0054
:100D300001215046FFF79CFD0121C8F840005046B4
:100D4000FFF796FD0BF1010BC8F8440008F14808C5
:100D5000D6F8BC379B45FFF64FAF019B09F19009D0
:100D600001330193D6F8C437019A9A4203DAC84690
:100D70004FF0000BECE72368C6F8D83701E04FF0DE
:100D8000FF37384607B0BDE8F08F000000000000D4
:100D9000002302E00022C25401338B42FADB704789
:100DA00010B5044600282ED0006808B106F040FDBA
:100DB00060680023236008B106F03AFDA0680023B4
:100DC000636008B106F034FDE0680023A36008B159
:100DD00006F02EFD20690023E36008B106F028FD2F
:100DE00060690023236108B106F022FDA069002399
:100DF000636108B106F01CFD00232046A361BDE835
:100E0000104006F015BD10BD0000000000000000FD
:100E10002DE9F84F00204FF4FE6106F049FD04462D
:100E200000286DD04FF4FE61FFF7B2FF382100209B
:100E300006F03EFD4FF4A4718346002006F038FD15
:100E40004FF48E718146002006F032FD41F21021F0
:100E50008246002006F02CFD4FF45271804600209F
:100E600006F026FD4FF4D9510746002006F020FD7C
:100E700042F204210646002006F01AFDC4F800B034
:100E80000546C4F80490C4F808A0C4F80C80276193
:100E90006661A061BBF1000F0BD0B9F1000F08D063
:100EA000BAF1000F05D0B8F1000F02D00FB106B1B2
:100EB00020B92046FFF774FF002421E0584638216E
:100EC000FFF766FF48464FF4A471FFF761FF5046F5
:100ED0004FF48E71FFF75CFF404641F21021FFF79F
:100EE00057FF38464FF45271FFF752FF30464FF428
:100EF000D951FFF74DFF284642F20421FFF748FF82
:100F00002046BDE8F88F000000000000000000004F
:100F10000B4680FB032318467047000000000000CA
:100F20002DE9F04F8BB00393149B0446052B0D461F
:100F3000089202DD4FF0000809E0C3F10608002323
:100F4000E25842FA08F2E2500433802BF8D1E36F02
:100F50002168AA4803EB010AC91AD4F83CB0D4F8B6
:100F60004090FFF7D5FFC9EB0B014600A448FFF7FF
:100F7000CFFF09EB0B0707EB0A034FEA4019C7EB5A
:100F80000A0123609F48FFF7C3FF09EB06034000F7
:100F9000C9EB0601E06323649A48FFF7B9FFA36F2A
:100FA0006168400003EB010AE067C91A9648D4F86B
:100FB00038B0D4F84490FFF7ABFFC9EB0B01460003
:100FC0009248FFF7A5FF09EB0B0707EB0A034FEA6F
:100FD000C009C7EB0A0163608D48FFF799FF09EB71
:100FE00006034000C9EB0601A06363648848FFF76D
:100FF0008FFF636FA168400003EB010AA067C91A65
:101000008448D4F834B0D4F84890FFF781FFC9EB96
:101010000B0146008048FFF77BFF09EB0B0707EB4E
:101020000A034FEAC009C7EB0A01A3607B48FFF738
:101030006FFF09EB06034000C9EB06016063A36480
:101040007648FFF765FF236FE168400003EB010A74
:101050006067C91A7248D4F830B0D4F84C90FFF7E2
:1010600057FFC9EB0B0146006E48FFF751FF09EB34
:101070000B0707EB0A034FEA8009C7EB0A01E3609D
:101080006948FFF745FF09EB06034000C9EB06017D
:101090002063E3646448FFF73BFFE36E216940008F
:1010A00003EB010A2067C91A6048D4F82CB0D4F8C1
:1010B0005090FFF72DFFC9EB0B0146005C48FFF78E
:1010C00027FF09EB0B0707EB0A034FEA8009C7EB81
:1010D0000A0123615748FFF71BFF09EB0603400095
:1010E000C9EB0601E06223655248FFF711FFA36ECA
:1010F0006169400003EB010AE066C91A4E48D4F862
:1011000028B0D4F85490FFF703FFC9EB0B01460059
:101110004A48FFF7FDFE09EB0B0707EB0A034FEA0E
:101120004009C7EB0A0163614548FFF7F1FE09EB8F
:1011300006038000C9EB0601A06263654048FFF723
:10114000E7FE636EA169800003EB010AA066C91A7D
:101150003C48D4F824B0D4F85890FFF7D9FEC9EB36
:101160000B0146003848FFF7D3FE09EB0B0707EBEE
:101170000A034FEA4009C7EB0A01A3613348FFF7AE
:10118000C7FE09EB06038000C9EB06016062A36598
:101190002E48FFF7BDFE236EE169800003EB010AD4
:1011A0006066C91A2A48D4F85C90D4F820B0FFF7DA
:1011B000AFFEC9EB0B0146002648FFF7A9FE09EB7D
:1011C0000B0707EB0A034FEA4009C7EB0A01E3618B
:1011D0002148FFF79DFE09EB060300012062E3654D
:1011E000C9EB06011C48FFF793FE1C4F0001206667
:1011F00007F1600326464246099431E051C213408C
:10120000FB22855172464F40BD45B340CF200B6D48
:10121000103CE1426D2DFA419057D941449F9148CD
:101220002134F943968DFC5E630ECB52C41BCC4631
:10123000971AD84A2E40E264F09C9D4AB31D7D7CEB
:10124000A924E2431137AE4F26CF6F6BC1923C6E9B
:10125000A71E6056EBF64C5F044E9E5128C800084E
:10126000D6F800C0F16957F8180C01EB0C0BC1EB74
:101270000C0100920193D6F80CA03469FFF748FEE8
:10128000C4EB0A014FEA400857F8140CFFF740FE80
:1012900004EB0A0957F810ACC40009EB0B00C9EBCA
:1012A0000B0107905046FFF733FE04EB08014000A6
:1012B000069005915046C4EB0801FFF729FE7468BB
:1012C000B1694FEA400C01EB040857F80C0C611AA5
:1012D000CDF808C0D6F808B0D6F814A0FFF718FE6D
:1012E000CAEB0B014FEA400957F8080CFFF710FE54
:1012F0000AEB0B0404EB080BCDF810B057F804BC54
:101300004FEA400AC4EB08015846FFF701FECAEB5A
:1013100009014FEA80085846FFF7FAFD0AEB090475
:10132000DDF81CE0DDF810904FEA800AC9EB0E01F1
:10133000CA48FFF7EDFDDDF818B08146C8EB0B0198
:10134000C648FFF7E5FDDDF810E0DDF81CB0400011
:101350000EEB0B01DDF818E03160F0444FEA490173
:10136000DDF81490716008EB0001B160F060C4EB2F
:101370000901BA48FFF7CCFDDDF808C04FEA400884
:10138000CAEB0C01B5480AEB0C09FFF7C1FDDDF80B
:1013900014B04000814400EB08015C44019B716182
:1013A0004C4409EB080118373461B161F061203613
:1013B0009F42009A7FF454AF03990898099C461AFB
:1013C00006F0070606F580608000002914BF4FF084
:1013D000000C4FF4885C0CEB00039046226805EB90
:1013E00003010A62EA50089A67684FEA8201039A89
:1013F00018BF4FF488525218AB181F62AF50D4F880
:1014000074A0676E03F580725744D4F844A0103678
:10141000BA44C3F820A1C3F800A1D4F83490D4F89A
:1014200024A002F58073CA44C2F820A1C2F800A12A
:10143000D4F854A003F580725744C3F82071C3F860
:101440000071D4F86CA0676F02F580735744D4F82C
:1014500014A0B600C2F820A1C2F800A1D4F854A08C
:1014600003F58072BA44C3F820A1C3F800A1D4F8F0
:101470002C90D4F834A002F58073CA44C2F820A19D
:10148000C2F800A1D4F84CA003F580725744C3F809
:101490002071C3F80071D4F87CA0E76E02F5807368
:1014A0005744D4F80CA0B444C2F820A1C2F800A15B
:1014B000D4F84CA003F58072BA44C3F820A1C3F855
:1014C00000A1D4F83C90D4F82CA002F58073CA4453
:1014D000C2F820A1C2F800A1D4F85CA003F5807284
:1014E0005744C3F82071C3F80071D4F81CA0E36F0F
:1014F000C2F820A1C2F800A1D4F85CA002F5807760
:101500009A44C7F820A1C7F800A1D4F83CA007F579
:10151000807202F58077C2F820A1C2F800A1C7F856
:101520002031C7F80031626805EB0C031A6245F8F8
:101530000C20A26FD4F864C003F580779444626CE9
:101540006244C3F82021C3F80021D4F824A0A36B7F
:1015500007F580725344C7F82031C7F80031A76DF2
:1015600002F580736744C2F82071C2F80071A76960
:1015700003F58072C3F82071C3F80071D4F878C005
:10158000A76E02F580736744D4F858C0BC44C2F813
:1015900020C1C2F800C1D4F838A0D4F828C003F59F
:1015A0008072D444C3F820C1C3F800C1D4F848C045
:1015B00002F580736744C2F82071C2F80071A76811
:1015C00003F58072C3F82071C3F80071D4F868C0C5
:1015D000276F02F580736744D4F848C0BC44C2F852
:1015E00020C1C2F800C1D4F828A0D4F830C003F557
:1015F0008072D444C3F820C1C3F800C1D4F850C0ED
:1016000002F580736744C2F82071C2F8007127693F
:1016100003F58072C3F82071C3F80071276ED4F807
:1016200070C002F58073BC44276D6744C2F8207116
:10163000C2F80071D4F830A0276A03F580725744CD
:10164000C3F82071C3F80071236C6344C2F82031E1
:10165000C2F80031B8F1000F5AD001E09A79825AED
:10166000DDF80C90B9F1000F0CBF4FF48853002344
:1016700018182A58C8F11F0352FA03F74FEAE27C00
:101680002C18BC4504D001229A40013A8CEA02028F
:1016900002FA08F222622A5001209840DDF80CB0CC
:1016A0000138BBF1000F14BF4FF4885200225118CB
:1016B000691801F570640A6852FA03F74FEAE27C90
:1016C000BC4518BF80EA0C0202FA08F2A1420A6285
:1016D0000A6002D001F58071EDE7039900290CBF83
:1016E0004FF4885200229619AD1905F5706C2A68DE
:1016F00052FA03F4D117A14218BF80EA010202FA9C
:1017000008F265452A622A6002D005F58075EEE789
:101710000BB0BDE8F08F00BF00000000000000002B
:10172000034608B920307047002001E001305B001B
:10173000002BFBDA704700000000000000000000F2
:101740002DE9F04F8B468FB00646002800F004814B
:101750000568002D00F00081D0F804C0BCF1000F36
:1017600000F0FA80D0F80890B9F1000F00F0F48092
:10177000C468002C00F0F080D0F810A0BAF1000F7F
:1017800000F0EA800AF546720A927C224A439021D0
:101790000B920CF1280201FB0B210B9A00234A4407
:1017A00004F590570D930C9309940891079208370C
:1017B000984624E0089B08F590620093079B04EB91
:1017C00082020193182303FB08A303F546730293D7
:1017D00009982B465146CDF818C000F0A1F9099A96
:1017E000089B02F510620992079A48333E32DDF8F1
:1017F00018C047F8040C08F1010808930792D6F8BE
:10180000BC3704379845D5DB2A6A002A33D004F563
:1018100090539968002905DC04F590531E68002355
:10182000194610E0DB68002B25DCF5E7E7584D484A
:101830008742B8BFE050E7586FF040408742C8BFCA
:10184000E05001310433B142F0DB04F590535E689F
:10185000002104F510630CE01F6842488742B8BFBE
:1018600018601F686FF040408742C8BF18600131A0
:101870000433B142F0DB530826D012F0010F14D02C
:101880000A9EDAF8301306F118026B6B21B952691F
:10189000013233F912100FE0126903EB4203198E83
:1018A0004FF0030311FB03F106E004F590531968B0
:1018B0005B689942B8BF194620460CAACDF818C0FB
:1018C00002F0F6FDDDF818C02A6A12F0010F2CD0E4
:1018D000DDF82CE02E7804F5905319680CA80EF171
:1018E0003E0352107EB90192902202FB0BC20A9E67
:1018F0004B440096D2F888200390029220462A4654
:1019000002F00EFE11E0029290220A9E02FB0BC230
:10191000009609F1F8060196D2F888204B4403920C
:1019200004902A46204602F063FF286AB0B10C9862
:10193000FFF7F6FE04F590540138A0600D98FFF70C
:10194000EFFE2268636801389A42A8BF1346E06040
:1019500023606360002001E04FF0FF300FB0BDE86E
:10196000F08F00BF010000C0000000000000000078
:101970000B4680FB03231846704700000000000060
:10198000034608B920307047002001E001305B00B9
:10199000002BFBDA70470000000000000000000090
:1019A0002DE9F04F89B003915449009203F00302EE
:1019B00001EB821A52499D1051F822101F2DA8BF29
:1019C0001F251B2D0290019101DD1F2300E0EB1C60
:1019D00000270497DAF8042023EAE3731A410592FA
:1019E000DAF80820B9461A410692DAF80C20A8461F
:1019F00052FA03F30793029A52F807B02BF0004310
:101A0000032B05DC08AA02EB830353F8102C63E0D8
:101A10000F2B0BDCB8F1000F5AF8232003DAC8F1C2
:101A200000039A4058E042FA08F255E03F2B09DCE7
:101A3000344A103B52F823000199FFF799FFA8F1AF
:101A400003023BE05C04B4F1006F01DB002601E01F
:101A50005C050426B4F1005F01DAA4000236B4F19B
:101A6000804F01DA64000136274A284B284D214671
:101A7000AC42D4BF15461D462868FFF779FF6B6856
:101A80002146C018FFF774FFAB682146C018FFF766
:101A90006FFFEB682146C018FFF76AFF2B69C0187B
:101AA0001C4B53F82610FFF763FF0199C000FFF7A6
:101AB0005FFF194B53F82620C2EB0802002A09DA0F
:101AC00053426FF0004252FA03F1884204DC10FAEC
:101AD00003F201E050FA02F2BBF1000F039B49EA66
:101AE0000209B8BF5242DA51009A0437013A009213
:101AF00081D1484609B0BDE8F08F00BFB0C80008EA
:101B0000B0CA0008B0C90008C0CA000870C8000800
:101B10009979825A90C8000890CA00080000000015
:101B20002DE9F04F91B01A9F99467B690490022BE2
:101B30008C4605921C9C03D016210D2601910BE0CA
:101B4000BE690EB9019607E099F800300326002B14
:101B50000CBF0823062301933B6CBA6801335B007A
:101B60000993D9F82030CDF820C05B0818BF023A9D
:101B700000230D930E930F9302329A4698469B468C
:101B80001D46234607924C46B1461E4632E0636B23
:101B900008F10102029233F9122033F91830D31AF6
:101BA00003931B9B13F80820FB6B13B16A4B13F8CC
:101BB0000830DDF810C0DDF81CE00CEB8500DDF826
:101BC00024C0CEF1D20E9B180CFB03E30146039A0E
:101BD000CDF818E0FFF7E4FE0599DDF80CE00B689E
:101BE0007544002818BFC2469D424BEA000B04DA38
:101BF000DDF80880019A9045C9DB33464E46A14680
:101C00001C460023CDF834A023600D9A0B2EDDF87E
:101C100020C06261E360A3606360236100F394808D
:101C2000BA460D960E960F9667460A94D9F8343048
:101C300006F1010C03EB460203EB4603B2F9302038
:101C4000B3F92E401B99CDF818C0DDF810E006EB73
:101C5000460C141BAB008C44A2000CF1170C9E44E4
:101C60000B95029225460893CDF80CE001974FF0B2
:101C7000000864460AEB08039B6A22780999DB0096
:101C8000D23302FB0133DDF81CC00398CCEB030315
:101C900001992A46FFF784FE034610B10DAA42F8C7
:101CA0000860DDF80CE00299019A08F10408521866
:101CB00001348E44B8F10C0F4BEA030BCDF80CE065
:101CC0000192D7D12C46DDF810C00B9DDDF820E045
:101CD00004EB4403ED1878180CEB0E0307EBC4017A
:101CE00000220CE057F82260013243F80C6C50F8E7
:101CF000046C43F8086C51F8046C43F8046C0C3322
:101D000004300431A242EDDB05990B689D4204DAF0
:101D1000069A0C2A01DC164688E7059B57461D608B
:101D2000BB690A9C002B14BF0223012323600D9A78
:101D300062600E99A1600F9B9142A8BF0A46E360C2
:101D40009A42ACBF226123615846FFF719FE013861
:101D500011B0BDE8F08F00BF70CA0008000000009D
:101D60002DE9F04F91B006920B910246002800F049
:101D70002C830168002900F028834568002D00F0BD
:101D800024838068002800F02083D2680592002A0E
:101D900000F01B83002BC0F218831A9A9020424354
:101DA0001B9C483800FB04222835AD182A6922B351
:101DB0006A69022A21D1AA695AB9486B696B033250
:101DC000013191FBF2F100EB4101B1F92E104A43D0
:101DD00006E00A78496B32B96A6B013231F9122098
:101DE0004FF4107113E0B1F93600B1F93420B1F9B4
:101DF0000C10821A01EB4202F2E7686B496BAC6B84
:101E0000013031F910200019013031F910106868E3
:101E10001B9E4000B0F5107FA8BF4FF41070059CCA
:101E20008142D4BF0E910E908242D4BF0D920D908C
:101E300006F5906100220F900C9244F821004FF4B7
:101E4000107171430B9C03900A910492A24609956C
:101E5000049D0CAA575952195268099EC7EB020CEF
:101E600006987219BCF1000FD169026840F3B28282
:101E7000002BC0F2AA82AE48C2F1080250F82180BD
:101E8000AC4812F0070250F8319000EBC10109791B
:101E90005546029116BF15F8010B1146C2F12001FB
:101EA0000A9C18BF00FA01F1059E0298E71906EB9B
:101EB000870740B90246002102323960796008374D
:101EC0006245F8DB86E29C4C981A04EB48060896BB
:101ED000029E012E7BD134F818B0089C0BF00F0B3A
:101EE00002340294D14600240F2813DD2E4616F842
:101EF00001ABC2F118080AFA08F848EA010195F89E
:101F00000180C2F1100508FA05F510322943103896
:101F1000751C1FE01418002C40F3578200280FDDB9
:101F200015F8018BC2F1180608FA06F631430828A5
:101F300006DD15F8010BC2F1100210FA02F211438E
:101F4000621E4FF0004050FA02F20020114004F1EE
:101F50000B020B24CBF1200621FA06F8029E36F87C
:101F60001880CDF81C80DDF81CA04FEA1838C8EBAB
:101F7000020201FA08F14FEA1A1818F00F0805D00A
:101F800001F0004A4AEA08084900013ADDF81CA0BD
:101F90004FEA1A2616F00F0605D001F0004A4AEA69
:101FA00006064900013AA242C0F20F82ACF1020CCF
:101FB000BCF1000FC7F800807E6003DD08370A2AF5
:101FC000C8DC91E79A1A121ACA461419FDE0029E5B
:101FD000B41EE4B2012C00F2F8814FF00008089C16
:101FE000D346CDF81C804E469A460F2813DD2B466B
:101FF00013F8019BC2F1180809FA08F848EA010130
:1020000095F80180C2F1100508FA05F51032294350
:1020100010385D1C21E01318002B40F3D6810028F6
:1020200010DD15F8019BC2F1180809FA08F8082814
:1020300041EA080106DD15F8010BC2F1100210FAA1
:1020400002F211434FF000405A1E50FA02F20B20E8
:102050001140079003F10B020B380195A5E0B4F88D
:10206000008008F00F08C8F1200331FA03F30133B0
:1020700034F813305FEA133906D1C8EB020201FAD3
:1020800008F104EB43048DE01C0904F00F041B0A63
:102090000F2CC9EB020201FA09F103F00F0330D152
:1020A000029D032D2ED106F10109002B18BF09F165
:1020B000010914184C45C0F28881DDF80480C2F192
:1020C000180406E018F8015C0832A54008382943D6
:1020D000083C4A45454608F10108F3DB0028019514
:1020E00008DA8218501E4FF0004454FA00F000EA5B
:1020F00001010020C6F1200431FA04F4B1400F348C
:10210000921B2CB101F0004848EA04044900013A4E
:102110000F2B32D1029D032D30D106F10109831816
:102120004B45C0F25281DDF80480C2F118030CE087
:10213000E0CA0008E0EC0008B0CB000818F8015C29
:1021400008329D4008382943083B4A45454608F176
:102150000108F3DB0028019508DA8218531E4FF0BE
:10216000004050FA03F3002003EA0101C6F1200306
:1021700031FA03F3B1400F33921B2BB101F0004849
:1021800048EA03034900013ADDF81C804245C0F2E9
:102190001C81B84648F8044B089C7B60ACF1020CEB
:1021A00008F10407BCF1000F07DD0A2A3FF757AF1B
:1021B000BCF1000F019D3FF718AF53469A1ADDF8A6
:1021C0001CC0121ADA4602EB0C04002CC0F2FD808F
:1021D0009C4200F3FA800698049A01680432611860
:1021E0000AEBE10A1B1B01F007010C2A01600492B3
:1021F0007FF42EAE1B9E059806F5906250F82220C3
:10220000099D0992039A002BC2F510720892544658
:10221000CDF810A06A6C02DC4FF0000CAEE06E4806
:102220006E4D50F82200C1F10801281807906C4843
:1022300011F0070150F82200DDF82880029016BF47
:1022400014F8010B0A46C1F12002039E18BF00FAE0
:1022500002F2059808EB0605002700EB8505BC4651
:10226000581A84E00F2813DD264616F801ABC1F199
:1022700018080AFA08F848EA020294F80180C1F145
:10228000100408FA04F4103122431038741C6CE076
:102290000E18002E72DD00280FDD14F8018BC1F13D
:1022A000180708FA07F73A43082806DD14F8010B67
:1022B000C1F1100110FA01F10A434FF00040711E04
:1022C00050FA01F10A270A40002006F10A014CE009
:1022D000029EC6F1200822FA08F6DDF81C8018F8E4
:1022E000066006F0080A4FEA16185FFA8AFAC8EB89
:1022F000010102FA08F2BAF1000F05D002F0004A1B
:102300004AF0010A5200013906F004095FFA89F91E
:10231000B9F1000F05D002F0004949F0010952005F
:10232000013906F002085FFA88F8B8F1000F05D00D
:1023300002F0004848F001085200013916F0010689
:1023400005D002F0004646F0010652000139B942BC
:1023500014DB0CF1040CC5F800A0C5F80490C5F816
:102360000880EE601035DC4501DA0929B0DCDDF8C3
:1023700020A0AAF1030BDC45FFF674AF1B9C099863
:10238000059D0CEB000204F5906145F821204FF407
:10239000107101FB042105EB810103E0002041F8ED
:1023A000040C01320431B2F5107FF7DB069EDDF834
:1023B00010803068DDF82CA01B1803F0070208EB32
:1023C000E3033260CAEB030001E04FF0FF3011B0CD
:1023D000BDE8F08F0024FBE6F0ED000860CB0008BC
:1023E000E0ED000800000000000000000000000018
:1023F0000B4680FB032318467047000000000000D6
:10240000002380EAE073A3EBE073184670470000F6
:10241000022A2DE9F84F05460C4669D1444EA968B9
:10242000B069FFF7E5FFA96907463068FFF7E0FFED
:10243000C01920606968F069FFF7DAFFE9690746AB
:102440007068FFF7D5FFC01960602968306AFFF730
:10245000CFFF296A0746B068FFF7CAFFC019A0601E
:102460002968706AFFF7C4FF296A0746F068FFF71A
:10247000BFFFC019E0606968B06AFFF7B9FFE9699A
:1024800007463069FFF7B4FFC0192061A968F06AF8
:10249000FFF7AEFFA96907467069FFF7A9FFC019EA
:1024A00060616969B069FFF7A3FFA0612969F069FC
:1024B000FFF79EFFE061E968306AFFF799FF20624D
:1024C000E968706AFFF794FF60622969B06AFFF7F4
:1024D0008FFFA062F06A6969FFF78AFF0023E0625C
:1024E00063642364E363A36363632363BDE8F88FDA
:1024F000104B4FF0900A0AFB023A0F46D0460026D6
:1025000055F806905AF806004946D8F844B0FFF747
:102510006FFF4946A0515846FFF76AFF04367864BA
:10252000043F242EA8F10408EAD1BDE8F88F00BFCB
:10253000C0F50008E8F400080000000000000000FA
:102540002DE9F84F04460E461D4602F00107A3BBD5
:10255000002F00F0AB80D0F88081D0F880C2D0F896
:102560008073D0F88064D4F88016D0F88005D4F851
:102570008027D4F88038D4F880A07F42CAF1000ABE
:10258000C8F10008CCF1000C764240424942524268
:102590005B42C4F88073C4F880A0C4F88081C4F89A
:1025A00080C2C4F88064C4F88005C4F88016C4F8FA
:1025B0008027C4F880382F4678E0C3F11F08002F29
:1025C0003BD04FF0010909FA08F94FF0000A09F170
:1025D000FF395746206840FA08F2C317934218BFE4
:1025E00089EA0300A8402060FFF70AFF8346D4F879
:1025F0008000404240FA08F2C317934218BF89EAAC
:102600000300A840C4F88000FFF7FAFE56F80A302D
:102610004BEA000043FA08F1DA1707438A4218BF71
:1026200089EA0203AB4046F80A300AF1040ABAF11B
:10263000240F3BD004F58074CCE74FF0010909FA70
:1026400008F9BA4609F1FF39206840FA08F2C317C1
:10265000934218BF89EA0300A8402060FFF7D0FE2C
:102660008346D4F8800040FA08F2C317934218BF9B
:1026700089EA0300A840C4F88000FFF7C1FE56F8BD
:102680000A304BEA000043FA08F1DA1707438A429E
:1026900018BF89EA0203AB4046F80A300AF1040A7F
:1026A000BAF1240F02D004F58074CDE73846BDE8B6
:1026B000F88F000000000000000000000000000093
:1026C0002DE9F04F026A0446466883680169D0F834
:1026D00014B0D0F81C900568806989B00BEB060730
:1026E00009EB0608281A02EB030ACD1806905B1ABC
:1026F000C8EB07009B1A0590E16842480493FFF776
:1027000077FECBEB06060346C9EB06013D48039373
:10271000FFF76EFE294607903B48FFF769FE5146DA
:1027200006463A48FFF764FEC5EB0A018346364881
:10273000FFF75EFE294682463448FFF759FE0599A9
:1027400081463348FFF754FE414605463148FFF7BE
:102750004FFE394601902E48FFF74AFE059907467D
:102760002C48FFF745FEA2692168039B01EB62013B
:102770005B005A18DDF81080CB1AC9EB0A0A0699DB
:10278000DDF80490760006EB4B066D0001EB680166
:102790003F1A05EB4908B018DDF81CB04044206032
:1027A0004FEA4B004FEA4A0A00EB01097F00C4F8E8
:1027B00004900AEB03090AEB060CB944C8EB0705C1
:1027C000C4F80890CCEB0309C5EB09090591C4F8DE
:1027D0000C900699DDF81090DDF814B0C9EB0101FA
:1027E000AD18F61852442161CCEB0505D71BC0EBA0
:1027F0000B01C8EB06066561A761E161266209B0BD
:10280000BDE8F08FA1EBD96E8BBE0D627E1A3A1631
:1028100049DD4652322E0E7E00000000000000000E
:102820002DE9F74FC46B056B426A2D1B8846816901
:10283000C5EB020AC368CAEB010106682248C1EB76
:10284000030BFFF7D5FDCBEB06067610C4EB0A0AA7
:10285000400006EB65075146761BC5193F1A1A481A
:10286000FFF7C6FDCAEB0B0B4FEA6B0B4FEA400AB2
:102870000BEB64090AEB09011448FFF7B9FDC4EB3F
:102880000B01830012480193FFF7B2FDCAEB090167
:1028900084001048FFF7ACFD019B4246E91842F85E
:1028A000041B8000A119C8F8041007EB000C111DCF
:1028B000C2F804C03F1A0A1D361BED1A4F6056605D
:1028C0009560BDE8FE8F00BFA1EBD96E1D75A37B9F
:1028D0009A79825A83FB202100000000000000004A
:1028E0002DE9F04FCDB0119107920346002800F07A
:1028F00056840268002A00F0528440680D90002837
:1029000000F04D84DE68002E00F049845B69069378
:10291000002B00F04484536B1278079C002A0CBFF4
:102920000822062233F91230122293FBF2F30B93A2
:1029300090234B43482101FB04331B18D96B022918
:1029400014D004F5906356F8233040F226218B42D0
:1029500002DD2025059504E0073393FBF2F20132F6
:102960000592DDF814C00CF1FF3207E01B6C13B9BF
:1029700005931A4602E00B98421E059007994FF402
:1029800010634B430993F3180C9604931C461646A8
:1029900007E1A84D676CD5F800903946484601928A
:1029A000D4F848A0D5F80480FFF722FD51468346AD
:1029B0004046FFF71DFDC0EB0B0040006064514630
:1029C0004846FFF715FD394682464046FFF710FDA1
:1029D00050444000A064276CD5F80890394648461A
:1029E000D4F84CA0D5F80C80FFF702FD5146834681
:1029F0004046FFF7FDFCC0EB0B0040002064514651
:102A00004846FFF7F5FC394682464046FFF7F0FCA2
:102A100050444000E064E76BD5F8109039464846D2
:102A2000D4F850A0D5F81480FFF7E2FC5146834655
:102A30004046FFF7DDFCC0EB0B004000E063514671
:102A40004846FFF7D5FC394682464046FFF7D0FCA2
:102A5000504440002065A76BD5F818903946484689
:102A6000D4F854A0D5F81C80FFF7C2FC5146834629
:102A70004046FFF7BDFCC0EB0B004000A063514691
:102A80004846FFF7B5FC394682464046FFF7B0FCA2
:102A9000504440006065676BD5F820903946484641
:102AA000D4F858A0D5F82480FFF7A2FC51468346FD
:102AB0004046FFF79DFCC0EB0B00400060635146B1
:102AC0004846FFF795FC394682464046FFF790FCA2
:102AD00050444000A065276BD5F8289039464846F9
:102AE000D4F85CA0D5F82C80FFF782FC51468346D1
:102AF0004046FFF77DFCC0EB0B00400020635146D1
:102B00004846FFF775FC394682464046FFF770FCA1
:102B100050444000E065E76AD5F8309005F138038D
:102B200039464846D4F860A0D5F834800293FFF7C0
:102B30005FFC514683464046FFF75AFCC0EB0B0052
:102B40004000E06251464846FFF752FC3946824653
:102B50004046FFF74DFC504440002066A76AD5F878
:102B600038A0029B394650465D68D4F86480FFF770
:102B70003FFC414681462846FFF73AFCC0EB09007E
:102B80004000A06241465046FFF732FC394680467D
:102B90002846FFF72DFC40444000019A6066013E44
:102BA0004834002E3FF7F5AE1223079C5A430C9E83
:102BB00004F5906156F8210008328242B8BF0246FF
:102BC00046F821201132069892FBF3F2069D04F597
:102BD000D86313929A1C55F8235050F822200433DE
:102BE00050F823300F92119A1093902353434822A8
:102BF00002FB04330D9C14951A19126C0B9D0231C3
:102C000056F82110002A08BF0025DDF81CC000F589
:102C100090520B950C914FF49065099905FB0C258A
:102C200004F1280200264018D21809901292344666
:102C30000A9626E130F00008129A936956691BB192
:102C40000B9B9C42B8BF00261098DDF83CA00C9A64
:102C50000999049B8442B8BF4FF0000A062A01EB91
:102C6000840816A8A3F1480E21DCC2F10707002250
:102C700029469446D3F8449049FA07F9CCEB090C5D
:102C8000D3F84090C2EB0C0249FA07F9CCEB090CDF
:102C90004264C0F820C0D1F82090083B49FA07F9F7
:102CA0000438C1F8209004397345E3D10EE00022C6
:102CB000049B11465F6C791A1F6C8A1A083B791ABB
:102CC0004264016204387345F4D100271F9B4CA86D
:102CD0005B101F93169B5B1040F8D83DFFF7F0FC8C
:102CE0001FA8FFF7EDFCBAF1000F5AD1002E58D102
:102CF0006E4A0DF1740908F50860DFF8BCB10E9753
:102D000008904F46B24691467A68B96AD9F80400ED
:102D10000192FFF76DFB019A55F80A104FEAA20CD9
:102D20004B42CCEB0002604445F80A00C2EB030CB6
:102D3000DBF80010604602930192CDF80CC0FFF75B
:102D400057FBDDF80CC0019ADBF8041002EB80029F
:102D500060460192FFF74CFB029B019A03EB800156
:102D6000089B4FEA4A1048F8002043F880191046A3
:102D700008930391FFF744FB03990246084601922A
:102D8000FFF73EFB019A0AF1040A02431643043F8F
:102D9000BAF1240F0BF1080BA9F10409B4D10E9F6D
:102DA0005EE05246284628A9FFF732FB404B9022AE
:102DB00002FB06334FF0000A089308F508601DABCC
:102DC00015970E90D14656461F463A4AB96A524464
:102DD000106AD7F804B0FFF70BFB4FEAAB0BC0EB60
:102DE0000B0C089B584445F8090053F8091028AA11
:102DF000604652F809B00192CDF80CC0FFF7F8FA1E
:102E0000019A83440898DDF80CC05244526C00EBE0
:102E10000A01496C60460192FFF7EAFA019A4FEA0B
:102E20008B0B4FEA491148F801B082180E999200B5
:102E300041F8802958460E910192FFF7E1FA019A74
:102E400083461046FFF7DCFA09F104094BEA00005B
:102E50000643043FB9F1240FAAF1040AB5D1159F26
:102E600005F1240122463B4640462439FFF768FB22
:102E70000A9A049B3043024348330A920493243550
:102E80000134DDF814C06445FFF6D6AEFCE00F9EB9
:102E9000109809990C9A8442B8BF002601EB84016E
:102EA000062A08910ADD00231AE000BF6CEE000834
:102EB000A0F4000850EE000800EE00080C98049AF8
:102EC000C0F10703002110681841106050681841D4
:102ED0005060685808321841685004312429F2D1F2
:102EE0000DF1A009049849460293FFF799FC049953
:102EF0000DF15808081D2EA9FFF792FC049A34A979
:102F000002F10800FFF78CFC324628464146FFF7E5
:102F10007FFA029B4FF0000A089FA34E0E94CDF853
:102F2000149052469C46AB46444616AB53F80A30C2
:102F3000CDF80CC04FEA830840460192FFF760FAD3
:102F4000C7F80080E368019A4FEA830840EA02026A
:102F500040460192FFF754FA019AC7F88081059D17
:102F600042EA0003A269E968D6F820014FEA820824
:102F70000293FFF73DFA80444046FFF741FAC7F855
:102F80000083029B626A0343D9F81410D6F82C011F
:102F90004FEA82080293FFF72BFA80444046FFF77E
:102FA0002FFA029BC7F8808443EA0002236BD9F80A
:102FB00008109B00D6F8380101920293FFF718FA27
:102FC000696A8046D6F82001FFF712FA029B804416
:102FD00098444046FFF714FAC7F80086019AE36B5D
:102FE00028A902439B0051F80A10D6F84401019227
:102FF0000293FFF7FDF9D9F82C108046D6F82C0182
:10300000FFF7F6F9029B804498444046FFF7F8F931
:10301000019A0AF1040A04350243C7F88087043490
:1030200080370436BAF10C0F0595A9F10409DDF8D3
:103030000CC07FF47AAF5D4693462E9A0E9C921098
:103040002A602F9A634692106A60309A9210AA60A2
:1030500000220DF5987C0CEB020050F8600CA918CA
:1030600004328010182AC860F3D1294622460898F5
:10307000FFF766FA0A99049A4BEA000001434832C6
:103080000A91049224350134139B9C42FFF6FFAE53
:103090000A9E274649E0109B0F9A0DF1E8099C42D1
:1030A000B8BF002228464946FFF7B2F9E307DDF82A
:1030B00024C0DB174FF0000804930CEB840A3A4657
:1030C000C34627462B464C46216801924FEA8109A8
:1030D000CAF8009048460293FFF792F90499054612
:1030E0006068083481EA800007F001014018CAF8DE
:1030F000800040EA0909FFF783F9029B0021284379
:1031000043F8081008F104080643B8F1240F4BEA0D
:10311000090B0AF5807A019AD6D13C461D4617461E
:103120008B4518BF274624350134149A9442B2DBEC
:1031300006E001330021122B42F8801BF9D1013443
:103140001F2C04DC099B03EB84020023F1E70EB97A
:10315000202305E0002301E001337600002EFBDA96
:10316000DDF844C0902000FB0CF0079C4FF0480CA9
:103170000CFB040004F5D862069D0D9C45F82270F6
:103180000019C06B911C45F821000B98111D013BE3
:10319000063245F8210045F82230002001E04FF0CA
:1031A000FF304DB0BDE8F08FA0F400080000000033
:1031B00030B504460D46C2FB03452046294630BDC6
:1031C000C2178311B2EB605F1CBF47F6FF73534019
:1031D00018B270470000000000000000000000006E
:1031E000000D40EA0130090D7047000000000000AA
:1031F0002DE9F04F164656F8047B93B00C46154661
:103200003B4622680F9000214FF00070FFF7D0FF7F
:103210006B68E26DC3F100084346FFF7C9FFD4F8BD
:103220008020CDE904013B4600214FF00070FFF7FC
:10323000BFFFD4F8DC204346FFF7BAFF776806F1FA
:10324000040A62683B46CDE90201DDE90401FFF7AB
:10325000AFFFDAF80460A26D76423346FFF7A8FFAD
:10326000D4F884203B46CDE90401DDE90201FFF7F3
:103270009FFFD4F8D8203346FFF79AFF0AF10408DD
:10328000D8F8047008F10409A2683B46CDE90201B0
:10329000DDE90401FFF78CFFD9F80460626D764226
:1032A0003346FFF785FFD4F888203B46CDE904017B
:1032B000DDE90201FFF77CFFD4F8D4203346FFF7A5
:1032C00077FF09F10408CDE90201DDE90401D8F82E
:1032D000047008F1040BE2683B46FFF769FFDBF876
:1032E0000460226D76423346FFF762FFD4F88C20EB
:1032F0003B46CDE90401DDE90201FFF759FFD4F8AF
:10330000D0203346FFF754FF0BF10408D8F80470BF
:1033100008F1040A22693B46CDE90201DDE9040116
:10332000FFF746FFDAF80460E26C76423346FFF7B7
:103330003FFFD4F890203B46CDE90401DDE90201CE
:10334000FFF736FFD4F8CC203346FFF731FF0AF100
:103350000408D8F8047008F1040962693B46CDE915
:103360000201DDE90401FFF723FFD9F80460A26C34
:1033700076423346FFF71CFFD4F894203B46CDE954
:103380000401DDE90201FFF713FFD4F8C82033463A
:10339000FFF70EFF09F10408CDE90201DDE90401A0
:1033A000D8F8047008F1040AA2693B46FFF700FF51
:1033B000DAF80460626C76423346FFF7F9FED4F81F
:1033C00098203B46CDE90401DDE90201FFF7F0FE5C
:1033D000D4F8C4203346FFF7EBFE0AF10408D8F80E
:1033E000046008F104098246E26933468B46DDE950
:1033F0000401FFF7DDFED9F80470226C7F423B46E2
:10340000FFF7D6FED4F89C208046894633465046C6
:103410005946FFF7CDFED4F8C0203B46FFF7C8FE63
:1034200006460F4640464946FFF7DAFEFFF7C8FE5C
:103430000F9B394618803046FFF7D2FEFFF7C0FEDB
:10344000D5F800840F9B04F580563268588000211F
:1034500043464FF00070FFF7ABFED6F88020CDE971
:103460000201434600214FF00070FFF7A1FECDE9B5
:103470000401DDE90201D5F804A472685346FFF7A0
:1034800097FED6F884205346CDE90201DDE9040118
:10349000FFF78EFE05F58067043707F104087F68A3
:1034A000B2683B46CDE90401DDE90201FFF780FE89
:1034B000D6F888203B46CDE90201DDE90401FFF79B
:1034C00077FED8F80470F2683B46CDE90401DDE9E7
:1034D0000201FFF76DFED6F88C203B46CDE90201D4
:1034E000DDE90401FFF764FE08F1040ADAF804706C
:1034F00032693B46CDE90401DDE90201FFF758FEE0
:10350000D6F890203B46CDE90201DDE90401FFF742
:103510004FFE0AF10409D9F8047072693B46CDE9FF
:103520000401DDE90201FFF743FED6F894203B4693
:10353000CDE90201DDE90401FFF73AFE09F10408D3
:10354000CDE90401DDE90201D8F80470B2693B4617
:10355000FFF72EFE08F1040A89468046D6F8982027
:10356000DDE904013B46FFF723FEDAF80470CDE9FC
:103570000401F2693B4640464946FFF719FED6F87A
:103580009C203B4680468946DDE90401FFF710FE9A
:1035900006460F4640464946FFF722FEFFF710FE5B
:1035A0000F9B3946A3F840003046FFF719FEFFF79E
:1035B00007FE0F9BA3F842009C460F2304932E6C3A
:1035C000D4F800813346424600214FF00070CDF818
:1035D00004C0FFF7EDFD6F6CCDE9020142463B46AA
:1035E00000214FF00070FFF7E3FDD4F85CA1C7F1B4
:1035F000000852464346CDE90801DDE90201FFF724
:10360000D7FD52463346CDE90601DDE90801FFF753
:10361000CFFDD4F880A1CDE9080152463346002100
:103620004FF00070FFF7C4FD5246CDE902013B4662
:1036300000214FF00070FFF7BBFDD4F8DC9182460B
:103640008B464A46DDE902014346FFF7B1FD4A4693
:10365000CDE90C01334650465946FFF7A9FDAE6C43
:10366000D4F8048133464246CDE90A01DDE906017A
:10367000FFF79EFDEF6C42463B46CDE90601DDE9D2
:103680000801FFF795FDD4F858A1C7F1000852468C
:103690004346CDE90201DDE90601FFF789FD524607
:1036A0003346CDE90601DDE90201FFF781FDD4F8DB
:1036B00084A133465246CDE90801DDE90C01FFF74C
:1036C00077FDD4F8D89152463B46CDE90201DDE9B9
:1036D0000A01FFF76DFD4A4682468B464346DDE907
:1036E0000201FFF765FD4A46CDE90C01334650461D
:1036F0005946FFF75DFD2E6DD4F8088133464246EA
:10370000CDE90A01DDE90601FFF752FD6F6D424682
:103710003B46CDE90601DDE90801FFF749FDD4F894
:1037200054A1C7F1000852464346CDE90201DDE944
:103730000601FFF73DFD52463346CDE90601DDE9BE
:103740000201FFF735FDD4F888A133465246CDE992
:103750000801DDE90C01FFF72BFD52463B46CDE9A0
:103760000201DDE90A01FFF723FDD4F8D491824676
:103770008B464A464346DDE90201FFF719FD4A46FA
:10378000CDE90C01334650465946FFF711FDAE6DA9
:10379000D4F80C8133464246CDE90A01DDE9060141
:1037A000FFF706FDEF6D42463B46CDE90601DDE938
:1037B0000801FFF7FDFCD4F850A1C7F100085246FC
:1037C0004346CDE90201DDE90601FFF7F1FC52466F
:1037D0003346CDE90601DDE90201FFF7E9FCD4F843
:1037E0008CA133465246CDE90801DDE90C01FFF713
:1037F000DFFC52463B46CDE90201DDE90A01FFF755
:10380000D7FCD4F8D09182468B464A46DDE90201C6
:103810004346FFF7CDFC4A46CDE90C0133465046FE
:103820005946FFF7C5FC2E6ED4F810813346424648
:10383000CDE90A01DDE90601FFF7BAFC6F6E4246E9
:103840003B46CDE90601DDE90801FFF7B1FCD4F8FC
:103850004CA1C7F1000852464346CDE90201DDE91B
:103860000601FFF7A5FC52463346CDE90601DDE926
:103870000201FFF79DFCD4F890A133465246CDE9F2
:103880000801DDE90C01FFF793FC52463B46CDE908
:103890000201DDE90A01FFF78BFCD4F8CC918246E6
:1038A0008B464A464346DDE90201FFF781FC4A4662
:1038B000CDE90C01334650465946FFF779FCAE6E10
:1038C000D4F8148133464246CDE90A01DDE9060108
:1038D000FFF76EFCEF6E42463B46CDE90601DDE99F
:1038E0000801FFF765FCD4F848A1C7F1000852466B
:1038F0004346CDE90201DDE90601FFF759FC5246D6
:103900003346CDE90601DDE90201FFF751FCD4F8A9
:1039100094A133465246CDE90801DDE90C01FFF7D9
:1039200047FC52463B46CDE90201DDE90A01FFF7BB
:103930003FFCD4F8C89182468B464A46DDE9020135
:103940004346FFF735FC4A46CDE90C013346504665
:103950005946FFF72DFC2E6FD4F8188133464246A6
:10396000CDE90A01DDE90601FFF722FC6F6F42464F
:103970003B46CDE90601DDE90801FFF719FCD4F863
:1039800044A1C7F1000852464346CDE90201DDE9F2
:103990000601FFF70DFC52463346CDE90601DDE98D
:1039A0000201FFF705FCCDE90801DDE90C01D4F8BF
:1039B00098A133465246FFF7FBFB52463B46CDE902
:1039C0000201DDE90A01FFF7F3FBD4F8C491824656
:1039D0008B464A46DDE902014346FFF7E9FB4A46CA
:1039E000CDE91001334650465946FFF7E1FBAE6F73
:1039F000D4F81C8133464246CDE90C01DDE90601CD
:103A0000FFF7D6FBEF6F42463B46CDE90601DDE905
:103A10000801FFF7CDFBD4F840A1C7F100085246DA
:103A2000CDE90201DDE906014346FFF7C1FB52463D
:103A30003346CDE90A01DDE90201FFF7B9FBD4F80D
:103A40009CA133465246CDE90801DDE91001FFF79C
:103A5000AFFB52463B46CDE90601DDE90C01FFF71D
:103A6000A7FBD4F8C091CDE90201DDE906014A4681
:103A70004346FFF79DFB4A46334682468B46DDE9C7
:103A80000201FFF795FB06460F46DDE90A01FFF745
:103A9000A7FBFFF795FB0F9B594698805046FFF711
:103AA0009FFBFFF78DFB0F9B4035D880DDE90801B8
:103AB000FFF796FBFFF784FBDDF804C03946ACF84E
:103AC0007C003046FFF78CFBFFF77AFB0F9BDDF89D
:103AD00004C004330F93049BACF87E00013B04F553
:103AE0008074ACF1040C04937FF469AD13B0BDE8AD
:103AF000F08F000000000000000000000000000047
:103B00002DE9F04F0C4615468BB08446171D2B68E7
:103B1000226800214FF00070CDF804C0FFF748FB89
:103B20006B68E26D5B42FFF743FB3E1D7B6862689A
:103B3000FFF73EFB736806F10408A26D5B42FFF7D6
:103B400037FB08F1040AD8F80430A268FFF730FB0D
:103B5000DAF804300AF10409626D5B42FFF728FBD2
:103B600009F1040BD9F80430E268FFF721FBDBF818
:103B700004300BF10407226D5B42FFF719FB3E1D79
:103B80007B682269FFF714FB736806F10408E26C96
:103B90005B42FFF70DFB08F1040AD8F804306269B4
:103BA000FFF706FBDAF804300AF10407A26C5B4267
:103BB000FFF7FEFA3E1D7B68A269FFF7F9FA73680A
:103BC00006F10408626C5B42FFF7F2FA08F1040A9E
:103BD000D8F80430E269FFF7EBFADAF80430226C27
:103BE0005B42FFF7E5FAFFF7FBFAFFF7E9FADDF8CA
:103BF00004C004F58056ACF8000005F58067326813
:103C0000D5F800344FF0007000210437FFF7D0FAE8
:103C10007268D5F80434FFF7CBFA07F104087B6823
:103C2000B268FFF7C5FA08F1040AD8F80430F26860
:103C3000FFF7BEFA0AF104093269DAF80430FFF737
:103C4000B7FA09F10408D9F804307269FFF7B0FA3D
:103C500008F10407B269D8F80430FFF7A9FAF2694D
:103C60007B68FFF7A5FAFFF7BBFAFFF7A9FADDF8C3
:103C700004C0ACF820000CF1040BE1460CF1220C5E
:103C8000D5F840A0D4F800615346324600214FF0E9
:103C90000070CDF804C0FFF78BFA6F6CCDE904011A
:103CA00032463B4600214FF00070FFF781FAD4F80E
:103CB0005C817B424246CDE90801DDE90401FFF762
:103CC00077FA42465346CDE90601DDE90801FFF7E0
:103CD0006FFAD5F848A0D4F8046153463246CDE9CE
:103CE0000401DDE90601FFF763FAEF6C32463B465B
:103CF000CDE90601DDE90401FFF75AFAD4F858814D
:103D00007B424246CDE90401DDE90601FFF750FAA6
:103D100042465346CDE90601DDE90401FFF748FAC2
:103D2000D5F850A0D4F8086153463246CDE90401D5
:103D3000DDE90601FFF73CFA6F6D32463B46CDE9FF
:103D40000601DDE90401FFF733FAD4F854817B4220
:103D50004246CDE90401DDE90601FFF729FA4246B2
:103D60005346CDE90601DDE90401FFF721FACDE96B
:103D70000401DDE90601D5F858A0D4F80C615346DA
:103D80003246FFF715FAEF6D32463B46CDE90601A4
:103D9000DDE90401FFF70CFAD4F850817B4242467A
:103DA000CDE90401DDE90601FFF702FA4246534678
:103DB000CDE90601DDE90401FFF7FAF9D5F860A0C5
:103DC000D4F8106153463246CDE90401DDE906011D
:103DD000FFF7EEF96F6E32463B46CDE90601DDE9AD
:103DE0000401FFF7E5F9D4F84C817B424246CDE966
:103DF0000401DDE90601FFF7DBF942465346CDE950
:103E00000601DDE90401FFF7D3F9D5F868A0D4F87D
:103E1000146153463246CDE90401DDE90601FFF79E
:103E2000C7F9EF6E32463B46CDE90601DDE90401F4
:103E3000FFF7BEF9D4F848817B424246CDE9040140
:103E4000DDE90601FFF7B4F942465346CDE9060124
:103E5000DDE90401FFF7ACF9D5F870A0D4F81861DA
:103E600053463246CDE90401DDE90601FFF7A0F92A
:103E70006F6F32463B46CDE90601DDE90401FFF7ED
:103E800097F9D4F844817B424246CDE90401DDE94B
:103E90000601FFF78DF942465346CDE90601DDE9FB
:103EA0000401FFF785F9D4F81C61D5F878A03246F3
:103EB000CDE90401DDE906015346FFF779F9EF6F1B
:103EC00032463B46CDE90601DDE90401FFF770F912
:103ED000D4F840817B42CDE90401DDE90601424688
:103EE000FFF766F9424606460F465346DDE90401F0
:103EF000FFF75EF902460B463046394603920293BD
:103F0000FFF76EF9FFF75CF9039A029B2BF8020C9E
:103F100019461046FFF764F9FFF752F9DDF804C0BF
:103F20000BF1020B4035E345A9F83E0004F580741F
:103F3000A9F102097FF4A4AE0BB0BDE8F08F000038
:103F40002DE9F04F95B0059102921E9E1F9D0490A1
:103F5000002800F09282D0F80080B8F1000F00F045
:103F60008C8241680391002900F087828468002CCC
:103F700000F08382126810A89B18D91D48BF03F176
:103F80000E01C910059AFCF76BFC029A116811B179
:103F900010A8FCF76DFC039998F8000001F12803C4
:103FA000002840F0F58090227243482101FB052251
:103FB0009A183E236B433431D2F80CE0DFF8C8C4C2
:103FC00001FB06311CF81EA00CEB4E0C9CF8019076
:103FD000D2F814C06718BCF1020F49D194694CB1F2
:103FE000044610A85146FCF743FC38550134082C10
:103FF000F7D1053C04EB4408B84408F117080DF16B
:10400000400B51465846FCF733FC514688F80000F7
:104010005846FCF72DFC514688F801005846FCF73D
:1040200027FC0134052C88F8020008F10308E6DDBE
:1040300004EB4408B84408F1170814E00DF1400AF5
:1040400049465046FCF714FC494608F8030C504614
:10405000FCF70EFC494608F8020C5046FCF708FC39
:10406000013408F8010C0B2C08F10308E6DDC2E16D
:104070008EB9344610A85146FCF7FAFB3855013486
:104080000B2CF7D110A84946FCF7F2FB3855013448
:10409000152CF7D1D4E1039A04EB030802F10800D0
:1040A0002A0100EB020B82588AB1E35C635498F852
:1040B00001307B7098F80230BB7098F80330FB70C9
:1040C00098F804303B7198F805307B7108E014468D
:1040D00010A85146FCF7CCFB38550134062CF7D11B
:1040E000DBF804307BB198F80630BB7198F80730E4
:1040F000FB7198F808303B7298F809307B7298F899
:104100000A30BB7208E0062410A85146FCF7B0FB49
:10411000385501340B2CF7D1DBF808307BB198F817
:104120000B30FB7298F80C303B7398F80D307B73B2
:1041300098F80E30BB7398F80F30FB7308E00B242F
:1041400010A84946FCF794FB38550134102CF7D1E0
:10415000DBF80C307BB198F810303B7498F81130D4
:104160007B7498F81230BB7498F81330FB7498F88D
:1041700014303B7508E0102410A84946FCF778FB82
:1041800038550134152CF7D100237B75BB7557E1E9
:1041900090227243482101FB05227C2777439A181D
:1041A0003E2303FB0577D8F82030E71913F0010907
:1041B000D16801D0012D47D0B1F5C87F13DA0811BD
:1041C000052390FBF3F30C9303EB8303C01A01F078
:1041D0000F039B1001F003010E9300230F910D902C
:1041E00019469E466AE0B1F5FA7F13DAA1F5C87167
:1041F0008810052390FBF3F30C9303EB8303C01AA1
:1042000001F0030100230E910D900F9319464FF01A
:10421000010E53E0A1F5FA71032091FBF0F000EBE1
:104220004003C91A00230C900D910F930E93D2F8FE
:1042300018C0BCF1000F01D1634601E00E910D9052
:1042400001214FF0020E39E001F001034910B329BA
:1042500013DC4FF0240C91FBFCF00CFB1011ACF1C3
:104260001E0C0C9091FBFCF00CFB10110E91002128
:104270000D900F914FF0030E20E0F32910DCB439BC
:1042800001F03F0000110C9001F00F0001F003015C
:1042900080100E9100210D900F914FF0040E0DE053
:1042A000F439032091FBF0F00C9000EB4000091A68
:1042B0000D9100210F910E914FF0050E50690228CB
:1042C00002D04FF0000806E09069002814BF4FF0BC
:1042D00002084FF001086B480EEB4E0E0EEB080C77
:1042E00000EB8C0A10F82C8050469AF801E0807898
:1042F0009AF803C0CDF82080CDF824E00A90CDF8DC
:104300002CC0B9F1000F1AD0012D18D1DDF830A062
:10431000C4F80C81C4F8FCA0DDF83480C4F810E1C6
:10432000C4F80081DDF838E0C4F81401C4F804E1F1
:104330000F98C4F818C1C4F80801C4F8F8305369DC
:10434000D163022B02D00024A0466EE094690CB920
:10435000A0460DE0DDF83080002410A84146FCF7AF
:1043600087FA38550134062CF7D1053C4FF0030885
:10437000A30008AA0DF1300CD2189C44E1469346E4
:10438000B4462A462AE0D9F8006010AF31463846D4
:104390000092CDF804C0FCF76BFA314605F8030C27
:1043A0003846FCF765FA314605F8020C3846FCF74A
:1043B0005FFA05F8010CDDF804C0009A0AF1010A61
:1043C00008F10108069B03359A45DCDB0134032C18
:1043D000079F0BF1040B09F104090ADCDBF800105C
:1043E00008EB48057D1900230691173507979A4673
:1043F000E8E766461546002387F83D3087F83C30ED
:1044000087F83B301CE00CAB10A81959FCF730FAC8
:104410000AF1010A09F8010C08F10108DA4509F16D
:104420000109F0DB0434102C07D008AB53F804B0BA
:1044300007EB08094FF0000AF0E70023BB757B7516
:10444000902205EB46035643483A02FB0565039A62
:104450000499AD18AA6A03F5FC7341F82320029B66
:1044600005991A6810A8FCF763FA02990B68C0183E
:1044700000F007030B60C01001E04FF0FF3015B0F3
:10448000BDE8F08FA0EE000880EE000800000000FC
:104490000B4680FB03231846704700000000000015
:1044A000002380EAE073A3EBE07318467047000036
:1044B0002DE9F84F002604460D46904600F510679A
:1044C000B246B146B34615E0A25957F8043C0BF189
:1044D000010B9918D31AA15147F8043CA059FFF7D2
:1044E000DFFF49EA000957F8040CFFF7D9FF04364B
:1044F0004AEA000A0437AB45E6DBD8F8003043EA65
:104500000903C8F80030D8F8043043EA0A03C8F8B1
:104510000430BDE8F88F000000000000000000003B
:104520002DE9F04F95B014461E9A0B9397690A90A7
:10453000DDF87C9002F1180347B95B695269606B42
:104540000133013230F91360049717E0013F012F66
:1045500005D900273A4604973B463E460EE01B69C4
:104560001769626B581C02EB43031E8E00224FF04A
:10457000030316FB03F6049001371346C6EB01084C
:1045800096494FF01C0B0BFB091B0B994FF0000ACF
:10459000C9180391079719465F46D34652E0039D19
:1045A0002B78072B06D18E4850F8393000EBC90024
:1045B000406803E057F82330B869C01A0690606B72
:1045C00001F1010CCDF814C030F9111030F91CC004
:1045D0000A98C1EB0C014FF0000C099708911F4697
:1045E00000EB8605234664461FE055F8041C069838
:1045F00000920193FFF74CFF8000C5F8FC08FFF71D
:104600004FFF55F8041C4AEA000A3846FFF740FFFE
:10461000800045F8040CFFF743FF019B009A4BEA2A
:10462000000B08F1FF380134013608998C4203DA97
:104630000435B8F1000FD8D11C46039B099F013304
:1046400005990393914280F2A780B8F1000FA6DC90
:10465000A2E090F800C0BCF1070F0CD1604D0DF145
:10466000440C55F8393005EBC9056D684CF801303C
:104670000EAB5D500BE057F82CC011AD45F801C0F2
:10468000BD69CCEB05050DF1380C4CF80150043137
:1046900001300C29DDD1616B501C059001EB42000B
:1046A00001EB4202B0F93000B2F92E200E99821AC5
:1046B0000492119A039B0C92139A0F9D0D911298DC
:1046C0001099DDF828C006920022099503970890FA
:1046D000174607910CEB86051A4655E055F80C1C59
:1046E0000D980092FFF7D4FE8000C5F8F408FFF79C
:1046F000D7FE55F80C1C84460C98CDF808C0FFF77F
:10470000C7FE800045F80C0CFFF7CAFE55F8081CE0
:10471000034609980193FFF7BBFE8000C5F8F8082F
:10472000FFF7BEFEDDF808C055F8081C4CEA000093
:1047300040EA0A0A0898FFF7ABFE800045F8080C2B
:10474000FFF7AEFE019B55F8041C43EA000040EA67
:104750000B0B0798FFF79CFE8000C5F8FC08FFF7DD
:104760009FFE55F8041C4AEA000A0698FFF790FEDF
:10477000800045F8040CFFF793FE009A4BEA000B0B
:10478000A8F1030801370336049887420DDA0C3587
:10479000B8F1020FA2DC08E05B46BB46079F194652
:1047A000049A3B465F468B4602E01346039F059AF8
:1047B0009A420ADAB8F1020F07DD0B9902EB4200C8
:1047C000081817300021039343E7219AC2F800B07C
:1047D000C2F804A015B0BDE8F08F00BFF0EE0008ED
:1047E00090F400080000000000000000000000003D
:1047F0002DE9F04FA5B006932F9B09901446186839
:10480000309ADDF8B8C002EB4000A44A03F110066C
:1048100002EB80120492002258684FF0010808FA57
:1048200000F80DAD08F1FF385F6905EB8205002047
:1048300003E045F8048C013001320435B842F8DB5E
:104840000433B342E8D1DCF818500CF11803059397
:10485000002D40F087800123059823932293466919
:10486000DCF81420F018636BDDF818C033F910A0E1
:104870000592CAEB01030CEB06020DF1340909EBBA
:10488000860901462F469346984667E09BF801202B
:10489000D9F804309A420AD1814B3098309A53F8B3
:1048A000300003EBC2030390D3F804C010E0531CA4
:1048B0005B10049E12F001020CBF104698003058A5
:1048C00003900AB1002300E09B00049850F803C055
:1048D000636B4A1C029233F9122033F911300998A4
:1048E000D31A4345A8BF43460022CDF81890CDF80F
:1048F0001CB0CDF8208000EB8A069046E1469B462E
:1049000019E056F8041C4846FFF7C2FD8000C6F8BF
:10491000FC08FFF7C5FD56F8041C05430398FFF794
:10492000B7FD800046F8040CFFF7BAFD08F1010856
:1049300007430AF1010A0436D845E2DBDDF820809E
:104940005B46DDF81890DDF81CB0B8EB03080BF1FE
:10495000010B09F1040900F09A800299059A8A4234
:1049600094DA94E00026012319933746B246B04604
:10497000A146E3460BEB06020598526883195B6873
:104980000892D9F8342003EB430C02EB4302118E5A
:104990004FF0030211FB02F20699D4448C445244B6
:1049A0000CF1170C59460DAD05EB8305E3460133B9
:1049B000D4460A9692460A465CE09BF80310686863
:1049C00081420AD13649309E309851F8366001EB69
:1049D000C00149680396029110E04C1C6410049ECB
:1049E00011F001010CBF0846A0003058039009B136
:1049F000002400E0A400049804590294D9F834007B
:104A0000591C079100EB430100EB4303B1F930104F
:104A1000B3F92E30099ECB1A06EB8A040B950026BB
:104A20001D461FE054F80C1C02980092CDF804C0FB
:104A3000FFF72EFD8000C4F8F408FFF731FD54F8AD
:104A40000C1C48EA00080398FFF722FD800044F898
:104A50000C0CFFF725FDDDF804C0009A0743013672
:104A60000AF1030A0C34AE42DCDB0B9D079B0BF111
:104A7000030B0435089898429FDA0A9E0CF1010A4C
:104A80000436BAF1030F93467FF474AF454632996A
:104A90000F604D6025B0BDE8F08F00BF30EF00081B
:104AA00090F400080000000000000000000000007A
:104AB0002DE9F04F0D4685B0002870D0C268002A5D
:104AC0006DD04669002E6AD08469002C67D0D0F87A
:104AD000BC37022B38D104F180030393B1464FF069
:104AE000000B06F5D858D8F818300BF0010A04F579
:104AF000085700934846534621463A68FCF710FA97
:104B0000D8F81C3009F510600093039953463A68B1
:104B1000FCF706FA3B684FF4886101FB0A3128462E
:104B200004EB8101214AFEF763FB3B680BF1010BAB
:104B3000CAEB030A0AF007038035BBF1120F3B6092
:104B400009F18009CDD12DE0B1464FF0000806F5FE
:104B5000D8539B6908F0010A04F5085700934846AA
:104B6000534621463A68FCF7DBF93B684FF488610D
:104B700001FB0A31284604EB81010C4AFEF7C0FF15
:104B80003B6808F10108CAEB030A0AF00703403545
:104B9000B8F1120F3B6009F18009D8D102E04FF063
:104BA000FF3000E0002005B0BDE8F08F70F0000895
:104BB0000346002009E01A5CFF2A05D11A18527832
:104BC00002F0E002E02A05D001304A1E9042F2DBFA
:104BD0004FF0FF30704700000000000000000000B0
:104BE00010B5034618B1D0F8D027032A07D0002308
:104BF0000B604B608B60CB600B614B6117E0D0F8B2
:104C0000B8074FF0060C0860D3F8BC074860D3F82B
:104C1000C04793F8D4378C601024CC60054C4A61AF
:104C20000CFB0344B4F904C000FB0CF008618B6179
:104C300010BD00BFB0F80008000000000000000038
:104C4000034680B1D0F8C827D0F8C407D3F8BC37E2
:104C500042435A43002304E04FF0000021F81300C0
:104C600001339342F8DB70470000000000000000B1
:104C700038B50C46054608B9053838BD1146FBF76E
:104C80006FFEB0F1FF3F09D0D5F8D037032B05D127
:104C900028462146FFF7A4FF002038BD6FF005002D
:104CA00038BD00000000000000000000000000000F
:104CB0002DE9F04F0D4689B017461E4604460028E0
:104CC00000F076810968FBF74BFEB0F10008C0F2F6
:104CD0008E802968204641442960FBF729FFB0F106
:104CE000000A06DA20463146FFF7AAFF6FF00600F9
:104CF00060E12B6853442B603B68C8EB0303CAEBAD
:104D000003033B60D4F8B8371BB1D4F8B037002B9D
:104D10005FD0D4F8B037002B53D101332A68C4F8E0
:104D2000B037CAEB020B3B68C8EB0B0B9146194638
:104D3000484604920393FFF73BFF0028049A039B25
:104D400023DB19F800E09BF800C009EB0001E64501
:104D500014D191F801E09BF801C0E6450ED19BF813
:104D600002C091F802E08EEA0C0E1EF0FC0F05D195
:104D70001CF0020F18BF01398A1A08E001F103097B
:104D80006FF00201091A5B18D1E74FF0FF32002AD9
:104D9000C4F8B42706DA20463146FFF751FF6FF01A
:104DA000020007E1D4F8C037D044DB0042445A4344
:104DB000D4F8C417D4F8C8374B4392FBF3F2C4F8C5
:104DC000B8272046D4F8B487FBF7BAFD4044C4F8AE
:104DD000CC07129A3B68A2B1D4F8D827C4F8CC37D4
:104DE0000AB9002B06DC20463146FFF729FF6FF099
:104DF0000500DFE0D5F80080C4F8DC3708EB0302DB
:104E000029E0D4F8CC279A4206DD20463146FFF748
:104E100017FF4FF0FF30CDE0D4F8DC17D4F8D837C7
:104E200004F11C08994221DBC91A1A464144404644
:104E3000FBF776FAD4F8D807D4F8CC274044296891
:104E4000FBF7A6F9D4F8CC37D4F8D8279A18C4F8C9
:104E5000DC272A68D2182A603A680025D31A3B60FA
:104E60000795D4F8DC374FEAC30B95E008EB010057
:104E70002968FBF78DF9D4F8CC37D4F8DC27204625
:104E8000D218C4F8DC272A683146D2182A603A685A
:104E9000D31A3B60FFF7D4FE6FF001008AE00DF1FA
:104EA000200A5AF8041D5B460591204641465246A9
:104EB00000950197FFF744F80028DDF81CC0D9F8E9
:104EC000003009DB0599C1EB0C0202EBC0029B1A12
:104ED000C2EB0B0B9B4506DA20463146FFF7B0FECE
:104EE0006FF0070066E08044414620465246CDF808
:104EF00010C000950197FCF733FF002809F1040961
:104F0000DDF810C006DA20463146FFF799FE6FF053
:104F100008004FE0079B8044C3EB0C0CE344C00047
:104F2000C0EB0B0B0137D4F8BC379F42B7DB2046F0
:104F30002946FCF705FC002801DB002715E0204688
:104F40003146FFF77DFE6FF0090033E02046294629
:104F50003A46FDF7C5FC002806DA20463146FFF741
:104F60006FFE6FF00A0025E00137D4F8BC379F428E
:104F7000ECDBD4F8C81720466943594306EB4101DE
:104F8000FFF796FD002806DA20463146FFF758FE67
:104F90006FF00B000EE00135D4F8C4379D4201DB01
:104FA000002007E005F1FC0904EBC9090027BAE776
:104FB0006FF0040009B0BDE8F08F000000000000B1
:104FC00008B1FBF7EDBE70470000000000000000D4
:104FD000FBF71EBF00000000000000000000000002
:104FE000054B9A8B12F4806F04D19A8B92B242F4E3
:104FF00080629A83704700BF003C004000000000C0
:10500000034A938B23F480631B041B0C9383704728
:10501000003C004000000000000000000000000014
:10502000034B9A8892B242F002029A80704700BF06
:10503000003C0040000000000000000000000000F4
:10504000034A938823F002031B041B0C93807047D0
:10505000003C0040000000000000000000000000D4
:10506000024B1A6842F001021A607047B8600240B1
:10507000054B1A6822F001021A6020B1024B1B682E
:1050800013F0010FFAD17047B86002400000000031
:10509000024B1A6842F018021A607047B86002406A
:1050A00082B0019002E0019B013B0193019B002B28
:1050B000F9D102B0704700000000000000000000BD
:1050C0008E4B4FF4961270B51A6006460D4604E0FA
:1050D00023685A1E2260002B3AD089484FF40031D1
:1050E00001F066F8854C0028F2D18548012100F0D6
:1050F000F7FE4FF48053236003E023685A1E2260BA
:1051000033B37F487F4901F03BF87C4C0028F4D052
:105110007B489421002200F003FF4FF4805323606A
:1051200003E023685A1E226093B17548764901F066
:1051300027F8724C0028F4D07148314600F098FFEF
:105140004FF48053236007E023685A1E22601BB986
:10515000BDE8704006F044BE69486C4901F010F8A3
:10516000664C0028F0D06648294600F081FF4FF4D5
:105170009613236005E023685A1E22600BB906F0DF
:105180002FFE5F48624901F013F85C4C0028F2D012
:105190005B48012100F0B4FE4FF49613236005E054
:1051A00023685A1E2260002B00F0928054484FF46E
:1051B000003100F0FDFF514C0028F1D15048012191
:1051C00000F08EFE4FF48053236004E023685A1EE3
:1051D0002260002B7CD04A484A4900F0D1FF474C5E
:1051E0000028F3D046489421002200F099FE4FF4A5
:1051F0008053236004E023685A1E2260002B67D08E
:105200003F48414900F0BCFF3C4C0028F3D03C48EB
:10521000314600F02DFF4FF48053236004E02368F3
:105220005A1E2260002B53D03548394900F0C0FF88
:10523000324C0028F3D03248012100F051FE4FF4E7
:105240008053236004E023685A1E2260002B3FD065
:105250002B482C4900F094FF284C0028F3D0284814
:105260009421012200F05CFE4FF48053236004E09F
:1052700023685A1E2260002B2AD02148254900F0BD
:1052800097FF1E4C0028F3D01D48002100F050FE6F
:105290001B480121038B00F033FE4FF48053236041
:1052A00003E023685A1E226093B115481A4900F0A2
:1052B0007FFF124C0028F4D0114800F0E1FE4FF4BB
:1052C0008053236008E00D4A1368591E11601BB912
:1052D00006F086FD04460DE0094E338813F4007F86
:1052E000F1D101210446304600F022FE30460B4940
:1052F00000F07EFF601B18BF012070BD0820002059
:1053000000540040010003008200070080000700F5
:105310000400001002000010400000100004001003
:10532000012802D10330FF2101E00420AF21FFF763
:10533000C7BE0000000000000000000000000000E8
:10534000FFF7EEBF000000000000000000000000BA
:1053500038B5E62800F11904E4B20AD92146202024
:10536000FFF7AEFE214605462120FFF7A9FE4019B2
:1053700038BD21462020FFF7A3FE21460546212007
:10538000FFF79EFE401938BD00000000000000003D
:10539000642801D9642005E00302181A642390FBF5
:1053A000F3F0C0B2FFF7D4BF00000000000000001F
:1053B00038B5044630B90130FFF7B2FF0121054688
:1053C00002200AE00020FFF7ABFFAF2105460420D2
:1053D000FFF776FE9E2145190220FFF771FE2D187A
:1053E0000DB1012038BD34B9FFF72AFE2046FFF782
:1053F0003FFE204638BDFFF713FEFFF731FEFFF7F3
:10540000EFFD284638BD000000000000000000004D
:105410001021002210B5074800F0A2FC44F6FF70EE
:10542000FFF73EFE034810210122BDE8104000F0C6
:1054300097BC00BF000C024000000000000000000C
:1054400037B50020FFF714FE224800F0F9F9FFF706
:10545000DFFF01210220FFF733FE00244FF4A053A9
:1054600069461D4800938DF804408DF805408DF87D
:1054700006408DF8074000F0D3FB1023694617481B
:10548000009300F0CDFB04212246144800F080FC7C
:105490000A212246104800F07BFC22460C210E48CF
:1054A00000F076FC802369460B48009300F0B8FBBF
:1054B00007210622084800F06BFCFFF7A1FD084811
:1054C00001F00EFC4FF40040214601F009F96D4651
:1054D00020463EBDB8600240000802400000024085
:1054E000003C004000000000000000000000000040
:1054F0002DE9F04764298AB0914602D94FF064083B
:1055000008E04FEA0128C1EB0808642398FBF3F890
:105510005FFA88F808AF08200121002401F0B0F8F4
:105520000226012539464FF0100A7A488DF8256089
:105530008DF826408DF82740CDF820A08DF8245016
:1055400000F06EFB0720294601F09AF84FF4107323
:105550003946714808938DF824608DF825608DF8E0
:1055600027408DF8265000F05BFB062104226A4894
:1055700000F00EFC04220921674800F009FC4FF4FA
:10558000A0533946654808938DF824608DF825604E
:105590008DF826408DF8274000F042FB04210622BA
:1055A0005F4800F0F5FB06220A215C4800F0F0FBA2
:1055B00039465B48CDF820A000F032FB06220C21D2
:1055C000564800F0E5FB80233946544808938DF88F
:1055D00024608DF825608DF826408DF8274000F076
:1055E0001FFB062207214D4800F0D2FBFFF710FFFA
:1055F00029464FF4001001F073F84A4800F090FE7D
:105600004BF6FF73ADF816304FF03303ADF818309A
:105610004FF48063ADF81A304FF48043ADF81C307E
:10562000414B0AAF47F8183D3E482946ADF81440B3
:1056300000F046FC39463B4800F0FAFD304629466A
:10564000FFF73EFDAF2107460420FFF739FD81211A
:10565000C7190520FFF734FD04213F180620FFF786
:105660002FFD3F184046FFF773FE9E213046FFF79F
:1056700027FD21463F180A20FFF722FD04213F188D
:105680000E20FFF71DFD21463F182720FFF718FDCC
:105690000F213F181F20FFF713FD0A213F181A2082
:1056A000FFF70EFD0A213F181B20FFF709FD2946D1
:1056B00006464FF4004001F013F81C4801F010FBBF
:1056C0004FF4007319486946ADF80240ADF8044044
:1056D000ADF80C40CDF80890ADF80030ADF80630CC
:1056E00001F04EF9BC1901D028460FE029464FF4CD
:1056F000001000F0C5FF2046FFF7BAFC0C4800F090
:105700009FF8FFF7C5FCFFF78BFC20460AB0BDE809
:10571000F08700BF000C0240000402400008024075
:105720000000024000540040A0860100003C004000
:10573000B86002400000000000000000000000000F
:105740000146014800F0ECB9B860024000000000DA
:1057500010B504460120FFF7E3FD022C05D12046D9
:105760009F21FFF7ADFC04460DE09F210220FFF7CB
:10577000A7FC044640F6FF70FFF792FC0F4810218B
:10578000002200F0EDFA0CB1012010BD2046FFF719
:105790006FFC4FF02050FFF7D3FF4FF01050FFF792
:1057A000CFFF4FF00150FFF7CBFF4FF00850FFF74E
:1057B000C7FFFFF725FC204610BD00BF000C0240CC
:1057C00070B5054690B001200E46FFF751FC4FF032
:1057D0001050FFF7B5FF4FF02050FFF7B1FF144B0B
:1057E00000240293402304934FF4806307934FF403
:1057F000006308934FF4005309934FF480730D48EE
:1058000001A90A9376084FF400330B930194069490
:105810000C940D940E940F940395059600F098F84F
:10582000FFF71EFCFFF7DCFB204610B070BD00BF89
:105830000C3C0040B8600240000000000000000086
:10584000036823F001030360002303604360836067
:10585000C360036121334361294B98421BD0294B1C
:1058600098421ED0284B984222D0284B984226D0EE
:10587000274B98422BD0274B98422ED0264B98424C
:1058800031D0264B984203D14FF03D52B83B2CE02B
:10589000234B984202D13D22103B13E0214B98420A
:1058A00003D14FF47462283B0CE01F4B984203D1A4
:1058B0004FF47412403B05E01C4B984204D14FF06A
:1058C0007462583B9A607047194B984202D1194A4A
:1058D000703B0AE0184B984202D1184A883B04E01A
:1058E000174B984203D1174AA03BDA607047164B1A
:1058F000984203D14FF03D52B83BDA60704700BF89
:10590000106002402860024040600240586002403F
:105910007060024088600240A0600240B8600240AF
:10592000106402402864024040640240586402400F
:10593000706402403D00002088640240400F002057
:10594000A064024000003D20B86402400000000056
:105950000268154B10B502EA0303CC680A6844EAF2
:1059600002024C6922438C692243CC6922430C6AAF
:1059700022434C6A22438C6A22434C6B22438C6B39
:10598000224342EA0303036042690C6BCB6A22F0B4
:10599000070244EA0303134343610B6943604B6806
:1059A00083608B68C36010BD3F801CF00000000066
:1059B0000023036043608360C360036143618361CC
:1059C000C361036243628362C362036343638363AD
:1059D0007047000000000000000000000000000010
:1059E00019B1036843F0010302E0036823F00103E7
:1059F000036070470000000000000000000000008D
:105A000019B1036843F4004302E0036823F4004340
:105A1000036070470000000000000000000000006C
:105A200019B1036843F0200302E0036823F0200368
:105A3000036070470000000000000000000000004C
:105A400041607047000000000000000000000000FE
:105A5000406880B2704700000000000000000000B5
:105A60001AB1036843F4002302E0036823F400231F
:105A700003600161704700000000000000000000AA
:105A800019B1036843F4802302E0036823F4802300
:105A900003607047000000000000000000000000EC
:105AA0000AB101617047C16070470000000000004A
:105AB0000068C00C00F0010070470000000000000A
:105AC000006800F0010070470000000000000000C6
:105AD000406900F03800704700000000000000003E
